{
  "contractName": "SimpleStorage",
  "abi": [
    {
      "inputs": [],
      "payable": false,
      "stateMutability": "nonpayable",
      "type": "constructor"
    },
    {
      "constant": false,
      "inputs": [
        {
          "name": "k",
          "type": "string"
        },
        {
          "name": "v",
          "type": "string"
        }
      ],
      "name": "set",
      "outputs": [],
      "payable": false,
      "stateMutability": "nonpayable",
      "type": "function"
    },
    {
      "constant": true,
      "inputs": [
        {
          "name": "k",
          "type": "string"
        }
      ],
      "name": "get",
      "outputs": [
        {
          "name": "",
          "type": "string"
        }
      ],
      "payable": false,
      "stateMutability": "view",
      "type": "function"
    }
  ],
  "bytecode": "0x608060405234801561001057600080fd5b50606060405190810160405280602e81526020017f516d616968775076774e716a6866336469417a35614d56503466454b4d78376b81526020017f73333537686a5669383269365673000000000000000000000000000000000000815250600060405180807f6169726564616c650000000000000000000000000000000000000000000000008152506008019050908152602001604051809103902090805190602001906100bf929190610223565b50606060405190810160405280602e81526020017f516d505a396763434570714b546f366171363167326e584755684d3469434c3381526020017f657742364c44585a4374696f4542000000000000000000000000000000000000815250600060405180807f726561646d65000000000000000000000000000000000000000000000000000081525060060190509081526020016040518091039020908051906020019061016e929190610223565b50606060405190810160405280602e81526020017f516d524b4363796a546f435772774365386932507a65466a6865706b6753795581526020017f58577746596a664a337736484138000000000000000000000000000000000000815250600060405180807f776562736974650000000000000000000000000000000000000000000000000081525060070190509081526020016040518091039020908051906020019061021d929190610223565b506102c8565b828054600181600116156101000203166002900490600052602060002090601f016020900481019282601f1061026457805160ff1916838001178555610292565b82800160010185558215610292579182015b82811115610291578251825591602001919060010190610276565b5b50905061029f91906102a3565b5090565b6102c591905b808211156102c15760008160009055506001016102a9565b5090565b90565b610444806102d76000396000f30060806040526004361061004c576000357c0100000000000000000000000000000000000000000000000000000000900463ffffffff168063693ec85e14610051578063e942b51614610133575b600080fd5b34801561005d57600080fd5b506100b8600480360381019080803590602001908201803590602001908080601f01602080910402602001604051908101604052809392919081815260200183838082843782019150505050505091929192905050506101e2565b6040518080602001828103825283818151815260200191508051906020019080838360005b838110156100f85780820151818401526020810190506100dd565b50505050905090810190601f1680156101255780820380516001836020036101000a031916815260200191505b509250505060405180910390f35b34801561013f57600080fd5b506101e0600480360381019080803590602001908201803590602001908080601f0160208091040260200160405190810160405280939291908181526020018383808284378201915050505050509192919290803590602001908201803590602001908080601f01602080910402602001604051908101604052809392919081815260200183838082843782019150505050505091929192905050506102ef565b005b60606000826040518082805190602001908083835b60208310151561021c57805182526020820191506020810190506020830392506101f7565b6001836020036101000a03801982511681845116808217855250505050505090500191505090815260200160405180910390208054600181600116156101000203166002900480601f0160208091040260200160405190810160405280929190818152602001828054600181600116156101000203166002900480156102e35780601f106102b8576101008083540402835291602001916102e3565b820191906000526020600020905b8154815290600101906020018083116102c657829003601f168201915b50505050509050919050565b806000836040518082805190602001908083835b6020831015156103285780518252602082019150602081019050602083039250610303565b6001836020036101000a0380198251168184511680821785525050505050509050019150509081526020016040518091039020908051906020019061036e929190610373565b505050565b828054600181600116156101000203166002900490600052602060002090601f016020900481019282601f106103b457805160ff19168380011785556103e2565b828001600101855582156103e2579182015b828111156103e15782518255916020019190600101906103c6565b5b5090506103ef91906103f3565b5090565b61041591905b808211156104115760008160009055506001016103f9565b5090565b905600a165627a7a723058206399313f3d5e455ccde921ddc20647776251a7e894d27fc7b07f9c43fd22f99c0029",
  "source": "pragma solidity ^0.4.18;\n\ncontract SimpleStorage {\n  mapping (string => string) data;\n\n  constructor() public {\n    data[\"airedale\"] = \"QmaihwPvwNqjhf3diAz5aMVP4fEKMx7ks357hjVi82i6Vs\";\n\n    data[\"readme\"] = \"QmPZ9gcCEpqKTo6aq61g2nXGUhM4iCL3ewB6LDXZCtioEB\"; \n\n    data[\"website\"] = \"QmRKCcyjToCWrwCe8i2PzeFjhepkgSyUXWwFYjfJ3w6HA8\";\n  }\n\n  function set(string k, string v) public {\n    data[k] = v;\n  }\n\n  function get(string k) public view returns (string) {\n    return data[k];\n  }\n}",
  "sourcePath": "/Users/lev/dev/custom-ui/testbed/contracts/SimpleStorage.sol",
  "compiler": {
    "name": "solc",
    "version": "0.4.24+commit.e67f0147.Emscripten.clang"
  },
  "schemaVersion": "2.0.0",
  "updatedAt": "2018-07-24T23:04:56.842Z"
}